:1000000008308A00002800000A108A100A118207AE
:1000100028340C34013406340C344F346C34E1345D
:100020002C342034733465346A34613420346234BF
:1000300065346D342034763469346E3464346F340E
:1000400028346134293400348C18A016A021613280
:10005000E139743961390A19A016A0226E3AF230DA
:1000600072008C24EE39693961106F104922201812
:10007000AD1C3A1025328A296537E8303A10A53987
:1000800000000C284129412145275310D027522A2E
:10009000410541214529D420A11000018C2AF33AC1
:1000A0006139E9372027E1378A22F834733AE510BD
:1000B00000018C296537E830A0246E3B6136693237
:1000C000E11000018C2252294F10C1278A20552AA5
:1000D0004527D424C320D21000008C2AD3225210EA
:1000E000CA20A022D824532A4500F432733A65006E
:1000F0008C24441D20008C24441D20008A2965374F
:10010000E8303A1000018C296537E830A0316132BF
:10011000E139743961326105E3376D10F33AE33246
:10012000F339EF1000018C24441D20008C29F43099
:10013000F43A731D2023C521C820C4208A296537BD
:10014000E8303A1000010C26C926D0204E224F106C
:10015000CD22CD27D22441008C26C5264F29C92087
:100160002026C926D02000018C2252294F10C422FB
:10017000D3214F27C822C324C42700004230840063
:10018000831300080319D1280630F800F701F70B94
:10019000C728F80BC6287B30F700F70BCD28800B5B
:1001A000C42808000830F8000430F700F70BD62800
:1001B000071322132208831687000330F700F70B7A
:1001C000DF288312CF0D8712031CEC28A216220809
:1001D00083168700F0288312A21222088316870054
:1001E0000000831222172208831687008312071F3C
:1001F000F728F80BD4280430F700F70BFD28071375
:10020000221322088316870000008312A2162208F8
:10021000831687000330F700F70B0C290330F70033
:10022000F70B1029831222172208831687008312E6
:10023000071F1829F8010330F700F70B1D29871A4B
:10024000781407132213220883168700831287125B
:10025000A212220883168700831208004D08003A74
:1002600003193629013A031959297E294C0EF70042
:10027000F030F70577082704CE00CF00D220000029
:100280004C0EF700F030F705770804382704CE004D
:10029000CF00D2200330F700F70B4C294C0EF700AB
:1002A000F030F7057708FB392704CE00CF00D220C5
:1002B0007E294C0EF700F030F70577080138270447
:1002C000CE00CF00D22000004C0EF700F030F70532
:1002D0007708013804382704CE00CF00D22003303D
:1002E000F700F70B71294C0EF700F030F70577088F
:1002F00001382704CE00CF00D2207E290800A216A4
:100300002208831687000430F700F70B8529831233
:1003100022172208831687000330F700F70B8E2977
:1003200083128712A2122208831687000430F70076
:10033000F70B9829831207132213220883168700CC
:1003400083122308CF00D220490ECB000F30CB05FB
:100350004B08CC004A08CD002E2149080F39CB00AC
:10036000CC004A08CD002E21A21222088316870055
:100370000000831222172208831687008312071FAA
:10038000BF290430F700F70BC329C6290000A216C5
:100390002208831687000430F700F70BCD2983125B
:1003A00008000130C900CA017F210230C200BE200E
:1003B0000130A60008003408A3003608A400350860
:1003C000A5000B138B138B1BE2293230C200BE2019
:1003D000A2162208831687000430F700F70BEE29D7
:1003E000831222172208831687000330F700F70BC9
:1003F000F72983128712A21222088316870004307D
:10040000F700F70B012A8312071322132208831621
:10041000870083122308CF00D220CC01CD012E21EA
:100420000F30C200BE200130B7003708033C031C68
:10043000222A0330CC00CD012E210530C200BE207F
:10044000B70A152A0230CC00CD012E210530C2009A
:10045000BE20A212220883168700000083122217F2
:100460002208831687008312071F342A0430F700FE
:10047000F70B382A3B2A0000A216220883168700B1
:100480000430F700F70B422A8312B7013708033C08
:10049000031C552A37080420B800C900CA017F216F
:1004A0000530C200BE20B70A462AD121C0308B04D5
:1004B0008A150A125B28A215220883168700831268
:1004C000221622088316870083128A150A126328CF
:1004D0000830F8000430F700F70B6C2A8711A211DE
:1004E0002208831687000330F700F70B752A831262
:1004F000C50D0712031C822A2216220883168700C4
:10050000862A831222122208831687000000831293
:10051000A2152208831687008312871D8D2AF80BE7
:100520006A2A0430F700F70B932A8711A2112208D8
:100530008316870000008312221622088316870084
:100540000330F700F70BA22A0330F700F70BA62AB7
:100550008312A2152208831687008312871DAE2AF4
:10056000F8010330F700F70BB32A071A7814871144
:10057000A211220883168700831207122212220872
:10058000831687008312080022162208831687002C
:100590000430F700F70BCA2A8312A215220883162B
:1005A00087000330F700F70BD32A831207122212B9
:1005B0002208831687000430F700F70BDD2A831228
:1005C0008711A211220883168700A0308312C5006C
:1005D00068227808441078184414221222088316DE
:1005E000870000008312A215220883168700831259
:1005F000871DF82A0430F700F70BFC2AFF2A0000B9
:1006000022162208831687000430F700F70B062B0A
:1006100000308312441C0130F8000800C422F8089E
:1006200003190E2B22162208831687000430F700C8
:10063000F70B182B8312A2152208831687000330AC
:10064000F700F70B212B83120712221222088316C0
:1006500087000430F700F70B2B2B83128711A211B0
:100660002208831687008312350CFA00340CF90037
:10067000FA0CF90CFA0CF90CFA0CF90CFA0CF90C4E
:10068000FA0CF90CFA0CF90C0130FA057908A038CB
:10069000FE39B700C50068223408C5006822360854
:1006A000C5006822221222088316870000008312E8
:1006B000A2152208831687008312871D5D2B043044
:1006C000F700F70B612B642B00002216220883161B
:1006D00087000430F700F70B6B2B831208004108EA
:1006E0000C3A03197A2B063A03197C2B023A0319A8
:1006F000BF2BC42BD121CA2BA60A2608240203181B
:10070000832B0130A6000130C2002608C300430835
:10071000240203188E2B2408C400902B4308C40025
:100720004408013A03199E2B033A0319A02B013AFE
:100730000319A32B073A0319A62BA92BC601AB2B30
:100740004030C600AB2B1430C600AB2B5430C60073
:10075000AB2BC601AB2B420825020318B22B250890
:10076000C500B42B4208C500013045024607C7004A
:1007700047088038C800C900CA017F21CA2B103041
:10078000C900CA017F21CA2B4108C9000130CA0033
:100790007F21CA2B0800831603178C170C14000046
:1007A000000083120C087F3903190F2C0313BE00BD
:1007B00003170D080313BF0003170F080313C0002E
:1007C0003E08C1006F233F0803178D000313400844
:1007D00003178F0083168C170C140000000083127F
:1007E0000C0D0E0D7F3903190F2C0313BE000317D8
:1007F0000D080313BF0003170F080313C0003E08C2
:10080000C1006F233F0803178D000313400803172F
:100810008F008D0A03198F0A0313CB2B03170313C1
:1008200008000C3003178D0000308F0083168C17E2
:100830000C140000000083128C080319362C0D08DC
:100840000313B40003170F080313B50003170C08B4
:100850000313C1006F23340803178D0003133508F9
:1008600003178F008D0A03198F0A162C0430031307
:10087000B400FA30C200BE20B40B392C2430031768
:100880008D0000308F000313CB238A150A12A6288F
:10089000B501B60134083502031C512CB408031D00
:1008A000662DB608031D662D8316061083120610EA
:1008B000831686108312861483160611831206157A
:1008C00083168611831286151430C200BE2083164B
:1008D000081483120818732C831608148312081C3A
:1008E0006C2C4430B60083168814831288187F2C31
:1008F000831688148312881C782C2330B600831644
:100900000815831208198B2C831608158312081DED
:10091000842C3030B6008316881583128819972CE2
:10092000831688158312881D902C2A30B6008316F2
:1009300006108312061483168610831286108316FF
:10094000061183120615831686118312861514303C
:10095000C200BE208316081483120818B62C831612
:1009600008148312081CAF2C4330B6008316881479
:1009700083128818C22C831688148312881CBB2CFF
:100980003930B6008316081583120819CE2C831649
:1009900008158312081DC72C3830B6008316881539
:1009A00083128819DA2C831688158312881DD32C9C
:1009B0003730B6008316061083120614831686108D
:1009C000831286148316061183120611831686116C
:1009D000831286151430C200BE20831608148312B9
:1009E0000818F92C831608148312081CF22C4230C4
:1009F000B6008316881483128818052D8316881470
:100A00008312881CFE2C3630B6008316081583121C
:100A10000819112D831608158312081D0A2D35306B
:100A2000B60083168815831288191D2D8316881524
:100A30008312881D162D3430B600831606108312DB
:100A400006148316861083128614831606118312E9
:100A5000061583168611831286111430C200BE203B
:100A600083160814831208183C2D83160814831269
:100A7000081C352D4130B60083168814831288185F
:100A8000482D831688148312881C412D3330B600FC
:100A90008316081583120819542D8316081583121E
:100AA000081D4D2D3230B600831688158312881923
:100AB000602D831688158312881D592D3130B6009C
:100AC0000530C200BE200530B5074A2CB608031D0C
:100AD0006B2DFF30B6003608F800080034082F3CB4
:100AE0000318762D3408393C0318862D3408403C11
:100AF00003187E2D3408443C0318862D34082A3C04
:100B00000319862D3408233C031D8A2D0130F8007B
:100B10008D2D8D2D0030F8008D2D0800C422F80891
:100B200003198E2D22162208831687000430F70041
:100B3000F70B982D8312A215220883168700033025
:100B4000F700F70BA12D8312071222122208831639
:100B500087000430F700F70BAB2D83128711A21129
:100B60002208831687008312420CFA00410CF90018
:100B7000FA0CF90CFA0CF90CFA0CF90CFA0CF90C49
:100B8000FA0CF90CFA0CF90C0130FA057908A038C6
:100B9000FE39C400C50068224108C500682222163B
:100BA0002208831687000430F700F70BD52D831237
:100BB000A2152208831687000330F700F70BDE2DFD
:100BC0008312871DE12D0712221222088316870047
:100BD0000430F700F70BEA2D83128711A2112208C7
:100BE000831687008312420CFA00410CF900FA0CBC
:100BF000F90CFA0CF90CFA0CF90CFA0CF90CFA0CC9
:100C0000F90CFA0CF90C0130FA057908A038013812
:100C1000C400C5006822F7010830C5007708C60087
:100C200022162208831687000330F700F70B162ED2
:100C30008312A2152208831687008312871D1E2E99
:100C4000071A0314071E0310F80D0430F700F70B02
:100C5000272EA21122088316870083128711C50B45
:100C6000102E22162208831687000330F700F70B98
:100C7000372E8312071246080319432E2212220828
:100C80008316870083120000A215220883168700AE
:100C90008312871D492E0430F700F70B4D2E871164
:100CA000A2112208831687000330F700F70B562E97
:100CB00083120712221222088316870078088312F3
:100CC000C300221222088316870000008312A21597
:100CD0002208831687008312871D6C2E0430F700CC
:100CE000F70B702E732E0000221622088316870041
:100CF0000430F700F70B7A2E83124308F80008003F
:100D0000B601B5013608033C031CA52E3608C20007
:100D10003508C1008E2578083402031DA02E6D30E1
:100D200003178D0000308F000313CB230430B7006E
:100D3000FA30C200BE20B70B982E0030F800A72E64
:100D40000530B5070318B60A822E0130F8008A155F
:100D50000A12F728B801B901BC01BB01BA013B086E
:100D6000033C031CF42E3B08C2003A08C1008E2548
:100D700078083402031DEF2E0130B900BD013A0797
:100D8000B70005303A07F8003B08FA000318FA0AE2
:100D90007808FA08031DD02E780837020318EF2EC2
:100DA0003D08350784008313361883170008BE00FA
:100DB000C0013708BF004008C2003F08C1008E25AF
:100DC00078083E02031DE52EBC0A3C08043C031DC6
:100DD000EC2E0130B800EF2EBD0AB70AC12E053047
:100DE000BA070318BB0AAF2E380B072F390B072F92
:100DF000413003178D0000308F000313CB230C30DC
:100E0000BE00FA30C200BE20BE0B012F3B2FB90836
:100E1000031D192F4E3003178D0000308F00031370
:100E2000CB230C30BE00FA30C200BE20BE0B132F05
:100E30003B2F390B2D2FB808031D2D2F59300317C9
:100E40008D0000308F000313CB230C30BE00FA302E
:100E5000C200BE20BE0B272F3B2F623003178D0030
:100E600000308F000313CB230C30BE00FA30C200D9
:0C0E7000BE20BE0B362F8A150A12F52991
:10100000840183131F3083050130A6000830A70038
:1010100083161F149F141F159F1107309C00831205
:10102000A001A101FF30A200A801AB01B001AF01F6
:1010300083161F149F141F159F1183121F108316F0
:10104000091283129412A2122208831687008312B7
:1010500022162208831687008312A2112208831603
:101060008700013083129400003083169400010839
:10107000C73908388100831290010030F8009200CF
:1010800000308316920007309C0005088500103060
:10109000F700F70B492800001C0883120D13831674
:1010A0009D0181134E308312B4001030B500023020
:1010B000B6008A11DB298A150A30C2008A11BE20C7
:1010C0008A158A115B2A8A150A30C2008A11BE204D
:1010D0008A15B501B401B6018A110E238A15B5012E
:1010E0000130B4003030B6008A110E238A15B501E4
:1010F0000230B4003030B6008A110E238A15B501D3
:101100000330B4003030B6008A110E238A15B501C1
:101110000430B4003030B6008A110E238A15B101B4
:101120003108033C031C9B282B30310784008313B8
:101130008001B10A9028753003178D0000308F00B0
:101140008A110313CB238A158A11112C8A150230B8
:10115000B4009630C2008A11BE208A15B40BA928AB
:10116000C830B4008A1148248A157808A9002908D3
:10117000B4008A116E258A15F8080319F529290883
:10118000313A0319CA28033A03195F29183A031997
:10119000B729EB29783003178D0000308F008A11B2
:1011A0000313CB238A15C830B4008A1148248A154A
:1011B0007808A9002908B4008A116E258A15F80854
:1011C000031DF3287B3003178D0000308F008A1138
:1011D0000313CB238A15C830B4008A1148248A151A
:1011E0007808A900DA282908B4008A11802E8A1507
:1011F000F8080319F5292908C1008A116F238A15F7
:101200003008B5002F08B4002908B6008A110E2353
:101210008A15AF0A0319B00A7E3003178D0000301B
:101220008F008A110313CB238A15C830B4008A11AA
:1012300048248A157808A900B1013108033C031C31
:101240004C296A30A9002908B4008A116E258A1534
:10125000F808031D3329C830B4008A1148248A15C0
:101260007808A90023292B3031078400831329082B
:1012700080002908C1008A116F238A153008B50043
:101280002F08B4002908B6008A110E238A15AF0A68
:101290000319B00AB10A1D29833003178D000030ED
:1012A0008F008A110313CB238A150430B400FA305F
:1012B000C2008A11BE208A15B40B5729F529933034
:1012C00003178D0000308F008A110313CB238A157A
:1012D000C830B4008A1148248A157808A900290862
:1012E000B4008A116E258A15F808031D7F29C830BD
:1012F000B4008A1148248A157808A9006F292908A2
:10130000AA00963003178D0000308F008A11031356
:10131000CB238A15B1013108033C031CAE296A3086
:10132000A9002908B4008A116E258A15F808031D42
:10133000A129C830B4008A1148248A157808A90068
:1013400091292908C1008A116F238A152B30310792
:101350008400831329088000B10A8B292A08B4006D
:10136000B6012B30B5008A11AA2E8A15F529A330B3
:1013700003178D0000308F008A110313CB238A15C9
:10138000C830C2008A11BE208A15B301B2013308E9
:10139000033C031CD8293308B5003208B40046309A
:1013A000B6008A110E238A15B20A0319B30AC72997
:1013B000AC3003178D0000308F008A110313CB234C
:1013C0008A150430B400FA30C2008A11BE208A1592
:1013D000B40BE329F529B43003178D0000308F00DA
:0E13E0008A110313CB238A15F529A428630074
:02400E003A3F37
:00000001FF
;PIC16F877A
;CRC=1ABE  CREATED="24-mar-24 13:43"
