:1000000000308A0073280000FF00030E8301A10066
:100010000A08A0008A010408A2007708A300780853
:10002000A4007908A5007A08A600831383120B1E8A
:100030001B288B182C28220884002308F70024088A
:10004000F8002508F9002608FA0020088A00210E89
:100050008300FF0E7F0E09008A110A122F2827083D
:10006000AF00FF30B000F701F8012F08031030187F
:10007000F707F70CF80CB018F707F70CF80C301965
:10008000F707F70CF80CB019F707F70CF80C301A53
:10009000F707F70CF80CB01AF707F70CF80C301B41
:1000A000F707F70CF80CB01BF707F70CF80C7808FB
:1000B000A7008B108A110A121B282E30840083138C
:1000C0000008031970280630F800F701F70B6628BE
:1000D000F80B65287B30F700F70B6C28800B632842
:1000E0008A110A12E928840183131F308305013025
:1000F000A700AC0183161F149F141F159F11073012
:100100009C0001308312A8000230A9000430AA002C
:100110000830AB00FF30AD0083161F149F141F156D
:100120009F111F1383121F139F1383169F13831294
:100130001F148316091283129412AD122D08831610
:10014000870083122D162D08831687008312AD11A8
:100150002D08831687000130831294000030831627
:1001600094000108C73908388100831290010030DB
:10017000F800920000308316920007309C000508BA
:1001800085001030F700F70BC32800001C0883120D
:100190000D1383169D0183120B16C0308B042708A4
:1001A000AC07AC1BD7282C08033C031CAC01AC1FCC
:1001B000DB280330AC0028302C07840083130008B0
:1001C000AE008316880183122E0888000130AE002D
:0601D0005D28CF2863004A
:02400E003A3F37
:00000001FF
;PIC16F877A
;CRC=58DE  CREATED="07-mar-24 17:35"
