:1000000000308A00492800000A108A100A1182076D
:10001000FC346034DA34F2346634B634BE34E0345E
:10002000FE34E6340A108A100A118207FE34303496
:10003000DA347A3434346E34EE343834FE347E3488
:100040002508F8012402031828282408F70034287A
:10005000F7010830A600A40DF70D25087702031854
:10006000F700F80DA60B2B28080025308400831319
:100070000008031948280230F800F701F70B3E2862
:10008000F80B3D289730F700F70B4428800B3B28EE
:100090000800840183131F30830583161F149F14E7
:1000A0001F159F1107309C008312A1012108A40095
:1000B0000A30A50020207808A2002108A4000A30F8
:1000C000A50020207708A30022081220A400831690
:1000D00086018312240886000230A400FA30A500AD
:1000E0003520A40B6E2823080420A4008316860163
:1000F0008312240886000230A400FA30A5003520BF
:10010000A40B7D28A10A21080A3C031CA101562842
:0201100063008A
:02400E00793FF8
:00000001FF
;PIC16F877A
;CRC=B0DC  CREATED="14-fev-24 19:48"
