:1000000000308A00F22800000A108A100A118207C4
:1000100028340F340134063423308400831300085D
:1000200003191F280630F800F701F70B1528F80B05
:1000300014287B30F700F70B1B28800B12280800D0
:100040002718242808122528081683160812831258
:10005000A7182C2888122D28881683168812831238
:100060002719342808133528081783160813831214
:10007000A7193C2888133D288817831688138910F0
:10008000831289148316891083128910080083163D
:10009000081283120812831688128312881283169C
:1000A0000813831208138316881383128813831688
:1000B00009118312091183168910831289100F30D8
:1000C000A3000C200130A2002208033C031C70286E
:1000D0000330A70020200530A3000C20A20A6428CA
:1000E0000230A7002020A2012208033C031CA02804
:1000F00022080420A300A4012308A50083160911E7
:1001000083120911A408031D8728091188280915DD
:1001100083160911A630F700F70B8C280000891010
:1001200083128910250EA6000F30A6052608A70009
:10013000202025080F39A600A7002020A20A742835
:100140008A110A1249292508F80124020318AB284C
:100150002408F700B728F7010830A600A40DF70D12
:10016000250877020318F700F80DA60BAE28080043
:1001700078082208A4006430A500A3207708A20014
:1001800078083030031DCB28A31CD328A319D3280B
:10019000231A2030CE28A31123122314F80778083D
:1001A0000C1ED02899002208A4000A30A500A32024
:1001B0007708A20078083030031DE428A319E92845
:1001C000231CE928231A2030F80778080C1EE6289B
:1001D00099003030A20722080C1EEC2899008A11E1
:1001E0000A125029840183131F308305813083163E
:1001F0009900A630980090308312980083161F143F
:100200009F141F159F1107309C00FF308312A00020
:1002100083161F149F141F159F111F1383121F1382
:100220009F1383169F1383121F14831609128312C0
:100230009412A0122008831687008312201620082B
:10024000831687008312A0112008831687000130CF
:10025000831294000030831694000108C7390838CF
:100260008100831290010030F80092000030831664
:10027000920007309C00050885001030F700F70B4E
:100280003F2900001C0883120D1383169D01831261
:100290004728A101A1012108A2001B30A300B82812
:1002A0000430A200FA30A3000C20A20B5229A10AAC
:0602B0004B294A296300FE
:02400E003A3F37
:00000001FF
;PIC16F877A
;CRC=C5BD  CREATED="02-abr-24 17:53"
