:1000000008308A00002800000A108A100A118207AE
:1000100028340C340134063441367417A030F43AD5
:1000200061363A1000004136F43AF2302032E539B8
:1000300065356132611D20008A306C3A7539611D69
:10004000A012750041367417A030F43A61363A10A8
:1000500000018A206C3A2E10E432F3326A1D20002F
:100060004430840083130008031944280130F80049
:10007000F701F70B3928F80B3828F130F700F70BA8
:100080003F280000800B362808000830F8000000E8
:100090008711A01120088316870000008312D10D5C
:1000A0000712031C592820162008831687005D2894
:1000B0008312201220088316870000008312A015E7
:1000C0002008831687008312871D6428F80B4728B1
:1000D00000008711A01120088316870000008312FA
:1000E0002016200883168700000000008312A01548
:1000F0002008831687008312871D7C28F8010000E2
:10010000071A78148711A01120088316870083121C
:1001100007122012200883168700831208004F0858
:10012000003A03199728013A0319B828DB284E0E24
:10013000F700F030F70577082504D000D1004520FE
:1001400000004E0EF700F030F7057708043825045C
:10015000D000D1004520AC2800004E0EF700F03052
:10016000F7057708FB392504D000D1004520DB28AE
:100170004E0EF700F030F705770801382504D0005F
:10018000D100452000004E0EF700F030F70577084B
:10019000013804382504D000D1004520CF280000C4
:1001A0004E0EF700F030F705770801382504D0002F
:1001B000D1004520DB280800201620088316870080
:1001C00000008312A0152008831687000000831208
:1001D000071220122008831687000000831287115F
:1001E000A01120088316870083122108D100452022
:1001F0004B0ECD000F30CD054D08CE004C08CF0082
:100200008F204B080F39CD00CE004C08CF008F2037
:10021000201220088316870000008312A0152008F2
:10022000831687008312871D1329000017290000F9
:100230002016200883168700000083120800013072
:10024000CB00CC01DC200230C40030200130A400FF
:1002500008004008A1004208A2004108A3000B13B7
:100260008B138B1B30293230C4003020201620081D
:100270008316870000008312A015200883168700CC
:100280000000831207122012200883168700000046
:1002900083128711A011200883168700831221087A
:1002A000D1004520CE01CF018F200F30C400302077
:1002B0000130C3004308033C031C67290330CE0010
:1002C000CF018F200530C4003020C30A5A290230E4
:1002D000CE00CF018F200530C4003020201220082E
:1002E0008316870000008312A0152008831687005C
:1002F0008312871D792900007D290000201620081F
:100300008316870000008312C3014308033C031CCB
:10031000942943080420C400CB00CC01DC20053024
:10032000C4003020C30A85291F21C0308B048A15E0
:100330000A127828C0080319A0290830A500A129AD
:10034000A5018A150A127D28B5309000831608147D
:1003500088108810831288108A150A1280284A088B
:100360000319742AD6004E080319742AD602031CF6
:10037000BE297F30D6070318742AC4298130D602DB
:10038000031C742A0319742A5608F700F801F901AE
:10039000FA01D5014B08D400D4174C08D3004D08FE
:1003A000D2001930D6005108D2020318E7290130D3
:1003B000D3020318E729D4020318E729D50203184A
:1003C000E729D50AD40AD30A5108D207192A5008B6
:1003D000D3020318022A0130D4020318022AD502DC
:1003E0000318022AD50AD40A5008D3075108D207A5
:1003F000031C192AD30A031D192AD40A031D192A1A
:10040000D50A192A4F088038D4020318182A013057
:10041000D5020318182AD50A4F088038D407500887
:10042000D307031CF629D40A031DF629D50AF62999
:100430007A14D60B1C2A272A0310D20DD30DD40D03
:10044000D50D0310FA0DF90DF80DD70DD329571C52
:100450002F2A0310F80CF90CFA0CD70C322AF703E8
:100460000319742AD71B5B2A0310D20DD30DD40DA8
:10047000D50D5108D2020318472A0130D3020318C0
:10048000472AD4020318472AD502031C6A2A5008B7
:10049000D3020318522A0130D4020318522AD5027B
:1004A000031C6A2A4F088038D40203185B2A0130E3
:1004B000D502031C6A2AFA0A031D6A2AF90A031DD7
:1004C0006A2AF80A031D6A2AF70A0319742AF80C23
:1004D000F90CFA0C4B08D6004F08D606D61F722A24
:1004E000F817782AF813782AF701F801F901FA01C8
:1004F00008004E080319E92AD60052080319E92A10
:10050000D60703188A2A7F30D602031CE92A03196A
:10051000E92A8E2A8130D6070318E92A5608F700FF
:10052000F801F901FA014F08DA00DA175008D9008A
:100530005108D8001830D600D701581CB72A5508E2
:10054000FA07031CA92AF90A031DA92AF80A0319A4
:10055000D7175408F907031CB02AF80A0319D7174C
:100560005308D000D0175008F8070318D717D70D35
:10057000F80CF90CFA0CDA0CD90CD80C0310D60BC9
:100580009C2A0130F7070318E92AF81BCE2ADA0D56
:10059000FA0DF90DF80DF7030319E92ADA1FDF2A1E
:1005A000FA0A031DDF2AF90A031DDF2AF80A031DD0
:1005B000DF2AF80CF90CFA0CF70A0319E92A4F089C
:1005C000D7005308D706D71FE72AF817ED2AF813E4
:1005D000ED2AF701F801F901FA010800C101C00193
:1005E000C501C401C301C201C901C801C701C601D7
:1005F0003008CD002F08CC002E08CB002D08CA00F3
:10060000B630F700FA01F901F8014A084B044C042E
:100610004D04031D0D2BF7011A2B0310F81B192B8A
:10062000CA0DCB0DCC0DCD0DFA0DF90DF80DF70B54
:100630000D2BF813CD01CC017A30CB008A30CA00E3
:100640007A08D1007908D0007808CF007708CE006A
:10065000AF217708CA007808CB007908CC007A0867
:10066000CD00D1007908D0007808CF007708CE00FF
:10067000D501D401D3018230D20079227A08C90091
:100680007908C8007808C7007708C6008316881064
:10069000831288140430F700F70B4C2B4F2B831672
:1006A000881083128810081C532B8F018E010818A4
:1006B000572B0F08FA000E08F7000F087A02031DE7
:1006C000592B7708C0007A08C1004108CB004008C8
:1006D000CA008E30F7004B08F8004A08F900FA010A
:1006E000F808031D7D2B7908F800F9010830F7029E
:1006F000F808031D7D2BF701852B0310F81B842BB5
:10070000F90DF80DF7037D2BF8137A08CD00790861
:10071000CC007808CB007708CA00D101D001CF0106
:100720008030CE00AF217708CA007808CB00790866
:10073000CC007A08CD00D1007908D0007808CF002D
:100740007708CE004908D5004808D4004708D300F0
:100750004608D20079227708CA007808CB007908C9
:10076000CC007A08CD00D1007908D0007808CF00FD
:100770007708CE00D501D4010830D3008430D200F0
:1007800079227A08C5007908C4007808C300770880
:10079000C2004208F7004308F8004408F900450881
:1007A000FA00080080308318C706CC01CD01430849
:1007B000CB004708CB0642080319C22CCA00F70039
:1007C00046080319CB2CCA020319672C031C252CDD
:1007D0004708D000D0174808CF004908CE00CD0107
:1007E0000310D00CCF0CCE0CCD0CCA0BEF2BCB1FB3
:1007F000FC2B4C14DF2C4C104A104C164530840056
:100800008313F42C4C12CB1B0F2C4A1C1A2CD00C2B
:10081000CF0CCE0CCD0CF70A0319DA2C1A2CD01BF6
:100820001D2C0310CD0DCE0DCF0DD00DF7030319E8
:10083000DA2C0F2C4C17872C4C134308CB00CB1F02
:10084000232CD017D32CD013D32C4608CA00F70082
:100850004208CA024308D000D0174408CF00450818
:10086000CE00CD010310D00CCF0CCE0CCD0CCA0B9A
:10087000312CCB1F3E2CCC14DF2CCC104A10CC16C4
:10088000493084008313F42CCC12CB1B512C4A1C0E
:100890005C2CD00CCF0CCE0CCD0CF70A0319DA2C43
:1008A0005C2CD01B5F2C0310CD0DCE0DCF0DD00DC9
:1008B000F7030319DA2C512CCC17872CCC134708DB
:1008C000CB00CB1F652CD017D32CD013D32C4708CB
:1008D000D000D0174808CF004908CE00CB1F742C99
:1008E000D0134C15DF2C4C11CD014A10453084003B
:1008F0008313F42CCB1B9D2C4308CB004A1C872C64
:10090000D00CCF0CCE0CCD0CF70A0319DA2CCD1F6E
:10091000982CCE0A031D982CCF0A031D982CD00AC0
:10092000031D982CD00CCF0CCE0CF70A0319DA2C2F
:100930004C1B1C2CCC1B5E2CBC2C8030D006D01F3A
:10094000A52CDF2C4708CB00B22C4308CB00D008E5
:10095000031DB22CCF08031DB22CCE08031DB22CF0
:10096000F701D32CD01BBC2C0310CD0DCE0DCF0D19
:10097000D00DF70BB22CDA2CCB1FC02CD017D32CF8
:10098000D013D32C4608F7004708D0004808CF0002
:100990004908CE00D32C4208F7004308D000440891
:1009A000CF004508CE005008F8004F08F9004E0867
:1009B000FA00122DF701F801F901FA01122DCD010B
:1009C000CE09CF09D009CD09CD0A031DED2CCE0AE1
:1009D000031DED2CCF0A0319D00A4C18FB2BCC18A1
:1009E0003D2C4C19732CA22C0008CE07031CFE2CA6
:1009F000CF0A031DFE2CD00A03194A1484030008F1
:100A0000CF07031C062DD00A03194A1484030008DB
:100A1000801F803AD00703184A144C1A022CCC1AB3
:100A2000442C7A2C8A150A12B3288E30F70042081B
:100A3000F7024308F9004408F800F917F70803190A
:100A40002C2D0310F908031D282DF80803192C2D4F
:100A5000F90CF80CF70B212DC31F332DF809F909F8
:100A6000F80A0319F90A080043080C3A03193F2D44
:100A7000063A0319412D023A0319842D892D1F21AD
:100A80008F2DA40A240822020318482D0130A40047
:100A90000130C4002408C500450822020318532D64
:100AA0002208C600552D4508C6004608013A03191C
:100AB000632D033A0319652D013A0319682D073A8E
:100AC00003196B2D6E2DC801702D4030C800702D9C
:100AD0001430C800702D5430C800702DC801702D1E
:100AE000440823020318772D2308C700792D4408F2
:100AF000C700013047024807C90049088038CA00CA
:100B0000CB00CC01DC208F2D1030CB00CC01DC20C1
:100B10008F2D4308CB000130CC00DC208F2D080046
:100B2000831603178C170C140000000083120C08A6
:100B30007F390319D42D0313C00003170D080313C5
:100B4000C10003170F080313C2004008C300342577
:100B5000410803178D000313420803178F00831603
:100B60008C170C140000000083120C0D0E0D7F3941
:100B70000319D42D0313C00003170D080313C1007C
:100B800003170F080313C2004008C30034254108AF
:100B900003178D000313420803178F008D0A0319F2
:100BA0008F0A0313902D0317031308004308F8015D
:100BB00042020318DE2D4208F700EA2DF701083043
:100BC000C400C20DF70D430877020318F700F80DB3
:100BD000C40BE12D080078084008C2006430C3004F
:100BE000D6257708C00078083030031DFE2DC11CC3
:100BF000052EC119052E411A2030012EC1114112B6
:100C00004114F8077808C30034254008C2000A30B0
:100C1000C300D6257708C00078083030031D162E93
:100C2000C1191A2E411C1A2E411A2030F8077808D3
:100C3000C30034253030C0074008C3003425080005
:100C4000831603178C170C140000000083120C0885
:100C50007F390319662E0313C00003170D08031311
:100C6000C10003170F080313C20040080C1E362EE4
:100C70009900410803178D000313420803178F00E2
:100C800083168C170C140000000083120C0D0E0D3F
:100C90007F390319662E0313C00003170D080313D1
:100CA000C10003170F080313C20040080C1E562E84
:100CB0009900410803178D000313420803178F00A2
:100CC0008D0A03198F0A0313202E031703138A15A5
:100CD0000A120729C501C3010A30C400C201400835
:100CE0004104031D762E0030F800672F4508C50A21
:100CF000400784008313411883170008C600460884
:100D00002D3C031D8F2E0130C3004508C50A400746
:100D100084008313411883170008C6009C2E4608E0
:100D20002B3C031D9C2E4508C50A400784008313F5
:100D3000411883170008C60046082F3C03185D2F92
:100D40004608393C031C5D2F4608303C031DC82E65
:100D50004508400784008313411883170008783C36
:100D60000319BC2E450840078400831341188317DC
:100D70000008583C031DC82E1030C400C50A4508A1
:100D8000C50A400784008313411883170008C60072
:100D900044080A3C031D0B2F46082F3C03180A2F5A
:100DA0004608393C031C0A2F0A30C7004208C80015
:100DB000F701F801470803104818F707F70CF80C7B
:100DC000C818F707F70CF80C4819F707F70CF80CD8
:100DD000C819F707F70CF80C481AF707F70CF80CC6
:100DE000C81AF707F70CF80C481BF707F70CF80CB4
:100DF000C81BF707F70CF80C303046027807C20022
:100E00004508C50A4007840083134118831700086A
:100E1000C600CC2E5D2F4408103C031D5D2F4608F4
:100E2000603C03181A2F46087A3C031C1A2F460808
:100E3000DF391B2F4608C60046082F3C0318242F15
:100E40004608393C03182C2F4608403C03185D2FF8
:100E50004608463C031C5D2F46082F3C03183D2FD7
:100E60004608393C031C3D2F420EC700F030C70531
:100E7000303046024707C200462F420EC700F0300E
:100E8000C705413046020A3E4707C2004508C50A69
:100E9000400784008313411883170008C6004608E2
:100EA000603C03185A2F46087A3C031C5A2F460808
:100EB000DF395B2F4608C6001C2F430B652F440803
:100EC0000A3C031D652FC209C20A4208F8008A15B0
:100ED0000A123129831603178C170C140000000026
:100EE00003189A2F83120C087F390313C1000317CC
:100EF0000D080313C20003170F080313C3004108B2
:100F00000C1E802F9900420803178D00031343081D
:100F100003178F0083168C170C1400000000831237
:100F20000313C00B942F972F831603179A2FB92FF3
:100F30008316031783120C0D0E0D7F390313C100A6
:100F400003170D080313C20003170F080313C30090
:100F500041080C1EA92F9900420803178D000313A6
:100F6000430803178F008D0A03198F0A0313C00B60
:100F70006A2F8A150A123F2978084008C200643097
:100F8000C300D6257708C00078083030031DCF2F66
:100F9000C11CD72FC119D72F411A2030D22FC11110
:100FA00041124114F80778080C1ED42F990040080C
:100FB000C2000A30C300D6257708C0007808303058
:100FC000031DE82FC119ED2F411CED2F411A2030D0
:100FD000F80778080C1EEA2F99003030C007400847
:0C0FE0000C1EF02F99008A150A124629F9
:10100000840183131F3083050130A4000830A5003C
:10101000263083169900A6309800903083129800ED
:10102000B0015B30AF008D30AE008030AD00B1015B
:1010300083161F149F141F159F1107309C00FF304B
:101040008312A000A601A701A80183161F149F14F4
:101050001F159F111F1383121F139F1383169F13B6
:1010600083121F148316091283129412A0122008EF
:1010700083168700831220162008831687008312A8
:10108000A0112008831687000130831294000030DD
:10109000831694000108C739083881008312900133
:1010A000073083169C00050885000430F700F70B15
:1010B00057285A281C0883120D1383169D010030EF
:1010C000F800063883129200FF30831692008312D4
:1010D0002011200883168700831207110C30970017
:1010E0004E30C0001030C1000230C2008A112929E0
:1010F0008A150130C0008A119A298A158A11A429FB
:101100008A158A11EE228A157708C0007808C10076
:101110007908C2007A08C300CD004208CC0041081B
:10112000CB004008CA00D101D0013830CF00833055
:10113000CE008A11AF218A15C1010408C0004110F8
:10114000831B41148314C501C4015830C30083308C
:10115000C2007A08C9007908C8007808C700770873
:10116000C6008A11D22B8A154008840083134118C7
:1011700083177708C2007808C3007908C4007A088A
:10118000C500D1004408D0004308CF004208CE007B
:10119000D501D4014830D3008430D2008A1179229D
:1011A0008A157A08C5007908C4007808C300770852
:1011B000C2008A1115258A157808B1008A111F21ED
:1011C0008A150C3003178D0000308F008A1103132D
:1011D00090258A153108C0001B30C1008A11EB250B
:1011E0008A150430C000FA30C4008A1130208A15F4
:1011F000C00BF328BC01BD01BE013230BF0013306B
:1012000003178D0000308F008A110313202E8A15DA
:1012100032303C07840083138C1E0C291A0880008E
:101220003C08BC0A323E8400831300080A3C0319C0
:10123000262901303C02323E8400831300080D3C15
:10124000031926293C08083C0318082901303C02F0
:10125000323E840083138001C1013230C0008A1104
:101260006A2E8A157808BD001C3003178D000030E7
:101270008F00031009300313C0008A116A2F8A15EA
:101280003D08C0001B30C1008A11BC2F8A153F08E1
:1012900095000230C000FA30C4008A1130208A154F
:1012A000C00B4B298A11EE228A157A08C5007908ED
:1012B000C4007808C3007708C2008A1115258A1572
:1012C0007808B100B11F6529B1018A111F218A1563
:1012D000223003178D0000308F008A1103139025F0
:1012E0008A153108C0001B30C1008A11EB258A1510
:1012F0000A30C4008A1130208A15293003178D0066
:1013000000308F008A11031390258A153D08C00014
:101310001B30C1008A11EB258A150A30C4008A11DE
:1013200030208A15B11B98293D08310203189E29E7
:101330003F08F93C031C9E29BF0AA929B11BA42917
:101340003D0831020318A9293F08013C0318A929C7
:0A135000BF033F0895005229630017
:02400E003A3F37
:00000001FF
;PIC16F877A
;CRC=DA10  CREATED="06-ago-24 17:20"
