:1000000000308A0087280000831608108312081029
:1000100083168813831288138A110A12D628233074
:10002000840083130008031923280130F800F70126
:10003000F70B1828F80B1728F130F700F70B1E28DC
:100040000000800B1528080083160810831208147E
:1000500083168810831288108316881383128813DE
:100060000C30A100FA30A3000F20A10B32288A1116
:100070000A12EB288316881083128814831608113D
:10008000831208110430A100FA30A3000F20A10B45
:100090004428831688138312881783160813831243
:1000A00008138A110A12EC282830A200FA30A300A3
:1000B0000F20A20B56288316081383120817A101DC
:1000C0002108043C031C78288316881383128813A4
:1000D000C830A3000F2083168813831288170430BA
:1000E000A200C830A3000F20A20B7128A10A60282B
:1000F0008316881383128813831608118312081538
:1001000083160810831208108A110A12ED28840140
:1001100083131F30830583161F149F141F159F110F
:1001200007309C00FF308312A00083161F149F1419
:100130001F159F111F1383121F139F1383169F13E5
:1001400083121F148316091283129412A01220081E
:1001500083168700831220162008831687008312D7
:10016000A01120088316870001308312940000300C
:10017000831694000108C739083881008312900162
:100180000030F800920000308316920007309C0087
:10019000050885000430F700F70BCC28CF281C0891
:1001A00083120D1383169D018312042883160614EF
:1001B00083120618F4288316081083120810831679
:1001C0008813831288132830A100FA30A3000F206F
:1001D000A10BE52824283A2854282830A100FA3019
:0C01E000A3000F20A10BEF28D52863001E
:02400E007A3FF7
:00000001FF
;PIC16F877A
;CRC=5194  CREATED="08-fev-24 16:10"
