:1000000004308A002D2C00000A108A100A11820781
:1000100028340F34013406340C2A6537F3306F105E
:10002000282B29103D10A5182E19E6060A000A2AC9
:10003000E53670103D10252675050D00353084001D
:1000400083130008031931280630F800F701F70B75
:100050002728F80B26287B30F700F70B2D28800B7C
:10006000242808003C18362808123728081683165A
:1000700008128312BC183E2888123F28881683165F
:10008000881283123C19462808134728081783163C
:1000900008138312BC194E2888134F28881783161B
:1000A000881389108312891483168910831289108A
:1000B00008008316091183120911B908031D62286B
:1000C00009116328091583160911A630F700F70BEB
:1000D000672800008910831289103A0EBB000F3088
:1000E000BB053B08BC0032203A080F39BB00BC00FE
:1000F0003220080083160812831208128316881211
:100100008312881283160813831208138316881328
:10011000831288138316091183120911831689101B
:10012000831289100F30B5001E200130A700270868
:10013000033C031CA3280330BC0032200530B5006B
:100140001E20A70A97280230BC003220A7012708EA
:10015000033C031CB42827080420A800B901280880
:10016000BA005920A70AA7288A110A129D2C8E309E
:10017000F7002808F8002708F900FA01F808031D1D
:10018000CB287908F800F9010830F702F808031DB8
:10019000CB28F701D3280310F81BD228F90DF80D4E
:1001A000F703CB28F8138A110A12B92C3408031963
:1001B0004629BC00380803194629BC070318E7285C
:1001C0007F30BC02031C462903194629EB288130E5
:1001D000BC07031846293C08F700F801F901FA01A9
:1001E0003508C000C0173608BF003708BE001830F9
:1001F000BC00BD013E1C14293B08FA07031C06295C
:10020000F90A031D0629F80A0319BD173A08F90768
:10021000031C0D29F80A0319BD173908B600B617D3
:100220003608F8070318BD17BD0DF80CF90CFA0CC9
:10023000C00CBF0CBE0C0310BC0BF9280130F70733
:1002400003184629F81B2B29C00DFA0DF90DF80DDE
:10025000F70303194629C01F3C29FA0A031D3C294C
:10026000F90A031D3C29F80A031D3C29F80CF90C76
:10027000FA0CF70A031946293508BD003908BD06EE
:10028000BD1F4429F8174A29F8134A29F701F80134
:10029000F901FA0108002B080319102AB7002F08EA
:1002A0000319102AB702031C5A297F30B707031815
:1002B000102A60298130B702031C102A0319102A62
:1002C0003708F700F801F901FA01B6012C08B5006A
:1002D000B5172D08B4002E08B3001930B700320846
:1002E000B302031883290130B40203188329B5022D
:1002F00003188329B60203188329B60AB50AB40A7B
:100300003208B307B5293108B40203189E29013019
:10031000B50203189E29B60203189E29B60AB50A2B
:100320003108B4073208B307031CB529B40A031D0A
:10033000B529B50A031DB529B60AB5293008803894
:10034000B5020318B4290130B6020318B429B60A5D
:1003500030088038B5073108B407031C9229B50A64
:10036000031D9229B60A92297A14B70BB829C3291A
:100370000310B30DB40DB50DB60D0310FA0DF90D44
:10038000F80DB80D6F29381CCB290310F80CF90CA7
:10039000FA0CB80CCE29F7030319102AB81BF72959
:1003A0000310B30DB40DB50DB60D3208B30203182A
:1003B000E3290130B4020318E329B5020318E32945
:1003C000B602031C062A3108B4020318EE290130D4
:1003D000B5020318EE29B602031C062A300880383D
:1003E000B5020318F7290130B602031C062AFA0ADF
:1003F000031D062AF90A031D062AF80A031D062A08
:10040000F70A0319102AF80CF90CFA0C2C08B7009B
:100410003008B706B71F0E2AF817142AF813142A43
:10042000F701F801F901FA018A110A12E62C3408E1
:100430000C3A0319252A063A03192D2A073A0319FB
:100440002D2A053A0319432A482AB9010130BA0076
:1004500059200230B5001E204E2A0130B50002306E
:10046000B600360B342A372A4030B700382AB70195
:1004700001303502B70737088038B800B9013808AD
:10048000BA0059204E2AB9011030BA0059204E2A1C
:100490000130B9003408BA0059204E2A08008316EA
:1004A00003178C170C140000000003187E2A831217
:1004B0000C087F390313A80003170D080313A900C4
:1004C00003170F080313AA002808B40017222908ED
:1004D00003178D0003132A0803178F0083168C1748
:1004E0000C140000000083120313A70B782A7B2A48
:1004F000831603177E2A9C2A8316031783120C0D7A
:100500000E0D7F390313A80003170D080313A9006C
:1005100003170F080313AA002808B400172229089C
:1005200003178D0003132A0803178F008D0A031980
:100530008F0A0313A70B4F2A0800F701F801F901EE
:10054000FA01BC01BD01BE01BF013B083A043904F8
:1005500038040319DB2A2030C0000310B40DB50D98
:10056000B60DB70DBC0DBD0DBE0DBF0D3B083F0256
:10057000031DC42A3A083E02031DC42A39083D025D
:10058000031DC42A38083C02031CD52A3808BC02C3
:100590003908031C390FBD023A08031C3A0FBE028A
:1005A0003B08031C3B0FBF020314F70DF80DF90DB8
:1005B000FA0DC00BAD2A3C308400831308000408F8
:1005C000AC002B08AE000319FE2A2A08B700290840
:1005D000B6002808B5002708B400BB01BA012030D6
:1005E000B9008230B800D6207A08AA007908A9009C
:1005F0007808A8007708A700AE0BE52A2A08B700FC
:100600002908B6002808B5002708B4003408B63C0D
:10061000B400FA013508B800B5170310B50CB60CD4
:10062000B70CFA0CF90CF80CF70CB40B0D2BB81F27
:10063000242BF709F809F909FA09F70A0319F80A46
:100640000319F90A0319FA0A7A08AA007908A90015
:100650007808A8007708A700AA1F3B2BAC03AC16AC
:10066000A709A809A909AA09A70A0319A80A031929
:10067000A90A0319AA0A3B30B3009A30B200CA3063
:10068000B100B0010A30AE002B080319AC0A2A08E9
:10069000B7002908B6002808B5002708B4003308B9
:1006A000BB003208BA003108B9003008B8009D22FA
:1006B0000008A700840A0008A800840A0008A9000E
:1006C000840A0008AA00FD308407F708031D7B2B6D
:1006D0002B0A2E0203197B2B2C0803197D2B0F39B3
:1006E0002E020319752B0318AD2BAC1BAD2B2C1B45
:1006F0007D2B2030A92B2030AC05AC1E8B2BAC12EF
:100700002B08031DAC037708AC002D30B400172272
:100710002C08F700AC012B082E02031D992B77083B
:10072000AC002E30B40017222C08F7002030AC05A6
:1007300000303030AC1EA92BAC122B08031DAC03CB
:100740007708AC002D30B40017222C08F700AC015C
:100750003030F7077708B40017223308B7003208A3
:10076000B6003108B5003008B400BB01BA01B901C8
:100770000A30B8009D227A08B3007908B2007808E0
:10078000B1007708B000AE0B472B8A110A12052D75
:10079000AF010408AE002F10831B2F14280EF03871
:1007A000AA00AA07E23EAB00323EAD0028080F398E
:1007B000AB07AB07AD07E93EAC00AC07AC07270EB3
:1007C0000F39AC07AD07AC0DAD0DAD09AD0D270868
:1007D0000F39AD07AA0D0730A9000A30AD07AC03E9
:1007E000031CEE2BAC07AB03031CF22BAB07AA03D5
:1007F000031CF62BAA07A903031CFA2B293084003B
:10080000831307302E052E1384072D30040203199D
:100810002E170008F700031D152C2E1B152C2E1A61
:10082000272CAE19152C2030182CAE152E12303076
:10083000F707A8010408A7002810831B28147708CD
:10084000B400172227088400831328188317840A0A
:100850002E1F052C8A110A121C2D840183131F30B0
:10086000830583161F149F141F159F1107309C00CA
:10087000FF308312A000A201A101A601A501A401DD
:10088000A30183161F109F141F159F151F17831296
:100890001F179F1383169F1383121F1483160912A9
:1008A00083129412A0122008831687008312201648
:1008B0002008831687008312A01120088316870062
:1008C0000130831294000030831694000108C73968
:1008D00008388100091283129412A012200883168E
:1008E0008700831220162008831687008312A01128
:1008F000200883168700013083129400003083168D
:1009000094000108C7390838810083129001003033
:10091000F800920000308316920007309C00050812
:1009200085001030F700F70B932C00001C08831291
:100930000D1383169D0183127A283230B5001E20D4
:100940000030F8001F08C73978049F005330F700C3
:10095000F70BA82C1F151F19AB2C1E08A201A10014
:100960005330F700F70BB22C2208A8002108A7008B
:10097000B7287708A7007808A8007908A9007A089E
:10098000AA00B7007908B6007808B5007708B40067
:10099000BB01BA012030B9008130B800D6207708F9
:1009A000A7007808A8007908A9007A08AA00AE0074
:1009B0007908AD007808AC007708AB00B201C03010
:1009C000B1007F30B0008830AF004B297A08A60014
:1009D0007908A5007808A4007708A3000C30031755
:1009E0008D0000308F0003100E300313A7004F223C
:1009F000893084002608AA002508A9002408A80038
:100A00002308A7000230AB00DF2A0D30B400172204
:100A10000A30B4001722173003178D0000308F0002
:100A2000031008300313A7004F221030840022085F
:100A3000A8002108A700C82B0A30B40017220D30E7
:100A4000B40017220830A700FA30B5001E20A70B0B
:060A5000242DAA2C630016
:02400E003A3F37
:00000001FF
;PIC16F877A
;CRC=7597  CREATED="01-ago-24 18:10"
