:1000000005308A002F2D00000A108A100A1182077D
:1000100028340C34013406340C00D332EE396F39F5
:100020002024C3165329301A0001C434733A3A10FD
:1000300025182E196610E3360000B53090008A119D
:100040000A12552D36308400831300080319352811
:100050000630F800F701F70B2B28F80B2A287B3025
:10006000F700F70B3128800B282808003D183A28A4
:1000700008123B280816831608128312BD1842285E
:100080008812432888168316881283123D194A283D
:1000900008134B280817831608138312BD1952281A
:1000A0008813532888178316881300008811831239
:1000B00088150230F700F70B5B285E2800008316D6
:1000C0008811831288110800831608118312081101
:1000D0006330F700F70B6A286D28BA0803197528F2
:1000E00083160811831208157928831608118312C4
:1000F0000811000083168811831288113B0EBC0082
:100100000F30BC053C08BD0036203B080F39BC0051
:10011000BD003620080083160811831208118316CB
:100120008811831288110F30B6002220A8012808F8
:10013000023C031CA3280330BD0036200530B60066
:100140002220A80A97280230BD003620A8012808DE
:10015000033C031CB72828080420A900BA01290879
:10016000BB0064200530B6002220A80AA7288A1107
:100170000A12562D360803192A29BE003A08031917
:100180002A29BE070318CB287F30BE02031C2A2968
:1001900003192A29CF288130BE0703182A293E08CF
:1001A000F700F801F901FA013708C200C217380850
:1001B000C1003908C0001830BE00BF01401CF8283B
:1001C0003D08FA07031CEA28F90A031DEA28F80A81
:1001D0000319BF173C08F907031CF128F80A031993
:1001E000BF173B08B800B8173808F8070318BF173F
:1001F000BF0DF80CF90CFA0CC20CC10CC00C0310AA
:10020000BE0BDD280130F70703182A29F81B0F2938
:10021000C20DFA0DF90DF80DF70303192A29C21FB3
:100220002029FA0A031D2029F90A031D2029F80AAA
:10023000031D2029F80CF90CFA0CF70A03192A29D6
:100240003708BF003B08BF06BF1F2829F8172E2913
:10025000F8132E29F701F801F901FA010800A901A4
:10026000A801AD01AC01AB01AA01B101B001AF0120
:10027000AE012308B5002208B4002108B30020080D
:10028000B200B630F700FA01F901F8013208330480
:1002900034043504031D4E29F7015B290310F81BB4
:1002A0005A29B20DB30DB40DB50DFA0DF90DF80DB7
:1002B000F70B4E29F813B501B4017A30B3008A3038
:1002C000B2007A08B9007908B8007808B700770852
:1002D000B600320803192E2ABE00360803192E2A4A
:1002E000BE02031C78297F30BE0703182E2A7E2900
:1002F0008130BE02031C2E2A03192E2A3E08F70065
:10030000F801F901FA01BD013308BC00BC1734083B
:10031000BB003508BA001930BE003908BA0203180C
:10032000A1290130BB020318A129BC020318A1298D
:10033000BD020318A129BD0ABC0ABB0A3908BA07C5
:10034000D3293808BB020318BC290130BC020318AA
:10035000BC29BD020318BC29BD0ABC0A3808BB076A
:100360003908BA07031CD329BB0A031DD329BC0AC9
:10037000031DD329BD0AD32937088038BC020318CE
:10038000D2290130BD020318D229BD0A37088038AE
:10039000BC073808BB07031CB029BC0A031DB029E1
:1003A000BD0AB0297A14BE0BD629E1290310BA0D73
:1003B000BB0DBC0DBD0D0310FA0DF90DF80DBF0DF1
:1003C0008D293F1CE9290310F80CF90CFA0CBF0C1D
:1003D000EC29F70303192E2ABF1B152A0310BA0DA7
:1003E000BB0DBC0DBD0D3908BA020318012A01303E
:1003F000BB020318012ABC020318012ABD02031C18
:10040000242A3808BB0203180C2A0130BC02031846
:100410000C2ABD02031C242A37088038BC020318AA
:10042000152A0130BD02031C242AFA0A031D242ABE
:10043000F90A031D242AF80A031D242AF70A0319BE
:100440002E2AF80CF90CFA0C3308BE003708BE0649
:10045000BE1F2C2AF817322AF813322AF701F801A6
:10046000F901FA017A08B5007908B4007808B300F8
:100470007708B2007A08B9007908B8007808B700A0
:100480007708B600BD01BC01BB018230BA00BA20BA
:100490007A08B1007908B0007808AF007708AE009C
:1004A00083168810831288141030F700F70B562A31
:1004B00000008316881083128810081C5D2A8E01A4
:1004C0008F018E010818622A0F08FA000E08F70043
:1004D0000F087A02031D642A7708A8007A08A90089
:1004E0000310290CB300280CB2003308B500320801
:1004F000B4008E30F7003508F8003408F900FA012E
:10050000F808031D8D2A7908F800F9010830F70270
:10051000F808031D8D2AF701952A0310F81B942A69
:10052000F90DF80DF7038D2AF8137A08B900790848
:10053000B8007808B7007708B6003108BD00300869
:10054000BC002F08BB002E08BA00BA207A08B500FC
:100550007908B4007808B3007708B2007A08B900C7
:100560007908B8007808B7007708B600BD01BC016B
:100570000830BB008430BA00BA207A08AD00790890
:10058000AC007808AB007708AA002A08F7002B080F
:10059000F8002C08F9002D08FA008A110A12572DCC
:1005A000370BD32AD62A4030B800D72AB8010130F9
:1005B0003602B80738088038B900BA013908BB00DC
:1005C0006420080035080C3A0319ED2A063A03198D
:1005D000F52A023A0319FB2A002BBA010130BB00AD
:1005E00064200230B6002220052B0130B600023014
:1005F000B700D022052BBA011030BB006420052BB8
:100600000130BA003508BB00642008000B08A800C0
:100610008B13831603178C170C1400000000831231
:100620000313A81B8B1703170C087F3903195A2BC8
:100630000313A80003170D080313A90003170F08DD
:100640000313AA002808B500E222290803178D0029
:1006500003132A0803178F0003130B08AB008B1337
:10066000831603178C170C14000000008312031369
:10067000AB1B8B1703170C0D0E0D7F3903195A2B6B
:100680000313A80003170D080313A90003170F088D
:100690000313AA002808B500E222290803178D00D9
:1006A00003132A0803178F008D0A03198F0A0313F7
:1006B000062B0317031308000C3003178D000030BE
:1006C0008F00031306238A110A12602D0B08A9005C
:1006D0008B13831603178C170C1400000000831271
:1006E0000313A91B8B1703189D2B03170C087F39C5
:1006F0000313A90003170D080313AA0003170F081B
:100700000313AB002908B500E2222A0803178D0065
:1007100003132B0803178F0003130B08AC008B1374
:10072000831603178C170C140000000083120313A8
:10073000AC1B8B17A80B9D2BBC2B03170C0D0E0DA0
:100740007F390313A90003170D080313AA00031729
:100750000F080313AB002908B500E2222A0803178B
:100760008D0003132B0803178F008D0A03198F0ABE
:1007700003100313A80B662B8A110A127A2D831813
:10078000C42B3D3084008313F701F801F901FA010D
:10079000BD01BE01BF01C0013C083B043A0439045D
:1007A0000319022C2030C1000310B50DB60DB70D92
:1007B000B80DBD0DBE0DBF0DC00D3C084002031DA0
:1007C000EB2B3B083F02031DEB2B3A083E02031DB7
:1007D000EB2B39083D02031CFC2B3908BD023A08FB
:1007E000031C3A0FBE023B08031C3B0FBF023C0830
:1007F000031C3C0FC0020314F70DF80DF90DFA0DA0
:10080000C10BD42B3D088000840A3E088000840A76
:100810003F088000840A4008800008000408AD00FA
:100820002C08AF0003192D2C2B08B9002A08B8009A
:100830002908B7002808B600BD01BC012030BB0064
:100840008230BA00BA207A08AB007908AA0078088A
:10085000A9007708A800AF0B142C2B08B8002A08B1
:10086000B7002908B6002808B5003508B63CB50021
:10087000FA013608B900B6170310B60CB70CB80C5D
:10088000FA0CF90CF80CF70CB50B3C2CB91F532CD7
:10089000F709F809F909FA09F70A0319F80A031917
:1008A000F90A0319FA0A7A08AB007908AA0078084D
:1008B000A9007708A800AB1F6A2CAD03AD16A809E4
:1008C000A909AA09AB09A80A0319A90A0319AA0ABE
:1008D0000319AB0A3B30B4009A30B300CA30B200FF
:1008E000B1010A30AF002C080319AD0A8314283077
:1008F000840083132B08B8002A08B7002908B60023
:100900002808B5003408BC003308BB003208BA0020
:100910003108B900BF237808F708031DA22C2C0A60
:100920002F020319A22C2D080319A42C0F392F0212
:1009300003199C2C0318D42CAD1BD42C2D1BA42CD8
:100940002030D02C2030AD05AD1EB22CAD122C08BD
:10095000031DAD037708AD002D30B500E2222D0850
:10096000F700AD012C082F02031DC02C7708AD0045
:100970002E30B500E2222D08F7002030AD05003002
:100980003030AD1ED02CAD122C08031DAD037708FE
:10099000AD002D30B500E2222D08F700AD0130305A
:1009A000F7077708B500E22283103408B80033084F
:1009B000B7003208B6003108B500BC01BB01BA016E
:1009C0000A30B900BF237A08B4007908B300780868
:1009D000B2007708B100AF0B762C8A110A12872D6E
:1009E0002908B0002D08B006B01FFB2C031103101E
:1009F000A91B03142E2D2908B0002C08B1002808CB
:100A0000B1020319092DB01F2E2D0308013A8300EE
:100A10002E2D2D08B1002908B1020319152DB01F84
:100A20002E2D0308013A83002E2D2E08B1002A082E
:100A3000B1020319212DB01F2E2D0308013A8300A6
:100A40002E2D2F08B1002B08B10203192D2DB01F38
:100A50002E2D0308013A83002E2D031008000308F1
:100A60001F3983000130A3003130A2002D30A100D6
:100A7000A001A701A601A501A40183161F149F14BC
:100A80001F159F1107309C0083130510831205105A
:100A900083168510831285108316051183120511A4
:100AA00083168511831285111D288B282F297A081A
:100AB000A7007908A6007808A5007708A4005C2B99
:100AC0000130B600B700D0220D3003178D00003082
:100AD0008F00031306230130B6000230B700D02286
:100AE000153003178D0000308F00031006300313FC
:100AF000A800662BC93084002708AB002608AA008E
:100B00002508A9002408A8000230AC000E2C2030D3
:100B1000B500E2226330B500E2226D30B500E2227A
:100B20008316051083120510831685108312851015
:100B30008316051183120511831685118312851101
:100B40002708AB002608AA002508A9002408A80049
:100B5000AF01AE017030AD008230AC00F02403185C
:100B6000B32D031DB72D8316051083120514270816
:100B7000AB002608AA002508A9002408A800AF0198
:100B8000AE014030AD008230AC00F0240318CA2D15
:100B9000031DCE2D83168510831285142708AB0004
:100BA0002608AA002508A9002408A800AF01AE0164
:100BB000AD018230AC00F0240318E02D031DE42DBC
:100BC00083160511831205152708AB002608AA0015
:100BD0002508A9002408A800AF01AE01AD018130AD
:100BE000AC00F0240318F62D031DFA2D8316851191
:0E0BF000831285159630B6002220562D630024
:02400E007A3FF7
:00000001FF
;PIC16F877A
;CRC=6794  CREATED="30-jun-20 18:22"
