:1000000000308A0004280000840183131F30830518
:1000100083161F149F141F159F1107309C00831215
:10002000A0010430A1000830A2000C30A300103061
:10003000A4001430A5001830A6001C30A700203002
:10004000A8002330A9002730AA002B30AB002F30A6
:10005000AC003230AD003630AE003A30AF003D304B
:10006000B0004130B1004430B2004730B3004B30F3
:10007000B4004E30B5005130B6005430B7005730A0
:10008000B8005A30B9005D30BA005F30BB00623052
:10009000BC006430BD006730BE006930BF006B300B
:1000A000C0006D30C1006F30C2007130C3007330CA
:1000B000C4007530C5007630C6007730C70079308F
:1000C000C8007A30C9007B30CA007C30CB007D305C
:1000D000CC00CD007E30CE00CF007F30D000D100EC
:1000E000FF30D20083161F149F141F159F111F137A
:1000F00083121F139F1383169F1383121F148316DB
:10010000091283129412D2125208831687008312A6
:1001100052165208831687008312D2115208831692
:100120008700013083129400003083169400010888
:10013000C73908388100831290010030F800053873
:100140009200F930831692008312521152088316DE
:100150008700831207110C30970095010730831632
:100160009C00050885000430F700F70BB528B82877
:100170001C0883120D1383169D018312D3015308AB
:10018000313C031CD22820305307840083137F3076
:100190000007D40095005230F700F70BCD28D02887
:1001A000D30ABF283130D300D3080319E628203002
:1001B0005307840083137F300007D400950052302A
:1001C000F700F70BE128E428D303D428D301530820
:1001D000313C031CFA2820305307840083130008A5
:1001E0007F3CD40095005230F700F70BF528F82833
:1001F000D30AE7283130D300D30803190E29203061
:1002000053078400831300087F3CD40095005230CC
:10021000F700F70B09290C29D303FC28BE2863003B
:02400E003A3F37
:00000001FF
;PIC16F877A
;CRC=0CBD  CREATED="22-fev-24 17:11"
