:1000000000308A0071280000FF00030E8301A10068
:100010000A08A0008A010408A2007708A300780853
:10002000A4007908A5007A08A600831383120B1E8A
:100030001B288B182C28220884002308F70024088A
:10004000F8002508F9002608FA0020088A00210E89
:100050008300FF0E7F0E09008A110A122F2827083D
:10006000B200FF30B300F701F80132080310331873
:10007000F707F70CF80CB318F707F70CF80C33195F
:10008000F707F70CF80CB319F707F70CF80C331A4D
:10009000F707F70CF80CB31AF707F70CF80C331B3B
:1000A000F707F70CF80CB31BF707F70CF80C7808F8
:1000B000A7008B108A110A121B2831308400831389
:1000C0000008031970280630F800F701F70B6628BE
:1000D000F80B65287B30F700F70B6C28800B632842
:1000E0000800840183131F3083050130A700AC0191
:1000F00083161F149F141F159F1107309C00013099
:100100008312A8000230A9000430AA000830AB0016
:10011000FF30AF0083161F109F141F159F151F136C
:1001200083121F139F1383169F1383121F148316AA
:10013000091283129412AF122F08831687008312BC
:100140002F162F08831687008312AF112F088316EE
:100150008700013083129400003083169400010858
:10016000C73908388100831290010030F8009200EE
:1001700000308316920007309C000508850010307F
:10018000F700F70BC12800001C0883120D1383161B
:100190009D0183120B16C0308B040030F8001F083D
:1001A000C73978049F001030F700F70BD5280000FE
:1001B0002708AC07AC1BE0282C08033C031CAC014F
:1001C000AC1FE4280330AC0028302C0784008313D4
:1001D000000EF700F030F7057708F039B00083160D
:1001E00088018312300888001F151F19F5281E0882
:1001F000AE01AD002E08B000B00AB0030319042907
:10020000FF30B1005D20FD282D08B1005D20D82809
:02021000630089
:02400E003A3F37
:00000001FF
;PIC16F877A
;CRC=240B  CREATED="14-mar-24 16:15"
