:1000000000308A0004280000840183131F30830518
:1000100083161F149F141F159F1107309C00FF307B
:100020008312A00083161F109F141F159F151F1306
:1000300083121F139F1383169F1783121F14831697
:10004000091283129412A0122008831687008312CB
:1000500020162008831687008312A011200883161B
:100060008700013083129400003083169400010849
:10007000C73908388100831290010030F800043835
:1000800092000030831692008312201120088316FC
:100090008700831207110C309700073083169C00ED
:1000A000050885001030F700F70B542800001C08E5
:1000B00083120D1383169D0183121F151F195E28CD
:1000C00083161E088312A100210895005D28630095
:02400E003A3F37
:00000001FF
;PIC16F877A
;CRC=9AAD  CREATED="01-ago-24 17:32"
