:1000000001308A00C3290000C434E734F432A03040
:10001000A0306C3A75396110E432F332EA30E430E2
:100020003A1000004136F43AF230A030F43A61362A
:100030003A1025267510E3360D05000083160317C8
:100040008C170C140000000083120C087F39031970
:1000500064280313AF0003170D080313B000031740
:100060000F080313B1002F080C1E34289900300824
:1000700003178D000313310803178F0083168C17A5
:100080000C140000000083120C0D0E0D7F390319B3
:1000900064280313AF0003170D080313B000031700
:1000A0000F080313B1002F080C1E542899003008C4
:1000B00003178D000313310803178F008D0A0319EE
:1000C0008F0A03131E28031703138A110A12F92932
:1000D000B201B101B30133082F0784008313301834
:1000E0008317800803199F283208B5003108B4002F
:1000F000B7010A30B6001030B800F701FA01B50CAC
:10010000B40C031C89283608F7070318FA0A3708C5
:10011000FA07FA0CF70CF90CF80CB80B7F28330827
:100120002F078400831330188317303000027807BC
:10013000B1007908B2000318B20AB30A6B2831087B
:10014000F8003208F9008A110A120B2A83160610E9
:10015000831206140430F700F70BAC28AF2883167F
:10016000061083120610831686148312861CB32889
:100170008F018E018316861483128618BA280F0801
:10018000FA000E08F7000F087A02031DBF2877084F
:10019000AF007A08B0003008B4002F08B300B601F1
:1001A0003A30B500F801F901F701FA013608031DEC
:1001B000DC2835080319F6281030B7000310B30DFA
:1001C000B40DF70DFA0D36087A02031DE92835083B
:1001D0007702031CF2283508F702031CFA033608DD
:1001E000FA020314F80DF90DB70BDE287908B200F6
:1001F0007808B1003108F8003208F9008A110A12B3
:10020000102A831603178C170C1400000000031823
:10021000312983120C087F390313B00003170D082E
:100220000313B10003170F080313B20030080C1EAC
:1002300017299900310803178D000313320803179B
:100240008F0083168C170C14000000008312031318
:10025000AF0B2B292E29831603173129502983161A
:10026000031783120C0D0E0D7F390313B000031713
:100270000D080313B10003170F080313B200300871
:100280000C1E40299900310803178D000313320812
:1002900003178F008D0A03198F0A0313AF0B01296F
:1002A0000800B7010408B6003710831B3714300E5E
:1002B000F038B200B207E23EB300323EB50030087B
:1002C0000F39B307B307B507E93EB400B407B40765
:1002D0002F0E0F39B407B507B40DB50DB509B50D1F
:1002E0002F080F39B507B20D0730B1000A30B50736
:1002F000B403031C7729B407B303031C7B29B3079A
:10030000B203031C7F29B207B103031C83293130D8
:100310008400831307303605361384073530040212
:10032000031936170008F700031D9E29361B9E2966
:10033000361AA629B6199E292030A129B6153612DB
:100340003030F70777080C1EA3299900840A361F5E
:100350008E298A110A12252A2F308400831300085F
:100360000319C0290130F800F701F70BB529F80B84
:10037000B429F130F700F70BBB290000800BB2293C
:100380008A110A12402A840183131F308305263004
:1003900083169900A6309800903083129800831637
:1003A0001F149F141F159F1107309C00FF308312EC
:1003B000A00083161F149F141F159F1185308312F0
:1003C00090002011200883168700831207110C303B
:1003D00097000030F80006389200FF308316920034
:1003E00083129501043003178D0000308F00031332
:1003F0001E282530840083138403840A8C1EFE2962
:100400001A0880000D300002031DFD298001B00193
:100410002530AF0068287908A4007808A300A62832
:100420007908A2007808A100123003178D0000306F
:100430008F0003100E300313AF0001211030840031
:100440002208B0002108AF0051291A3003178D008F
:1004500000308F00031405300313AF000121220880
:100460002402031C3C2A031D392A230821020318F5
:100470003C2AFF3095003D2A95016430AF00AC293D
:040480000F2A6300DC
:02400E003A3F37
:00000001FF
;PIC16F877A
;CRC=CED0  CREATED="25-jun-24 19:53"
