:1000000000308A0065280000C8326C366F16A03BAD
:100010006F396C322110A5310D050000D9377510EC
:10002000F3326E3A3A10A5310000831603178C178D
:100030000C14000000000318452883120C087F39B7
:100040000313A30003170D080313A40003170F08DD
:100050000313A50023080C1E2B289900240803175E
:100060008D000313250803178F0083168C170C14BB
:100070000000000083120313A20B3F2842288316BE
:100080000317452864288316031783120C0D0E0DE1
:100090007F390313A30003170D080313A4000317EC
:1000A0000F080313A50023080C1E542899002408E8
:1000B00003178D000313250803178F008D0A0319FA
:1000C0008F0A0313A20B15280800840183131F3025
:1000D0008305813083169900A630980090308312F2
:1000E000980083161F149F141F159F1107309C0042
:1000F000FF308312A00083161F149F141F159F1139
:100100001F1383121F139F1383169F1383121F1431
:100110008316091283129412A012200883168700F6
:10012000831220162008831687008312A01120084E
:1001300083168700013083129400003083169400E8
:100140000108C73908388100831290010030F80097
:10015000920000308316920007309C00050885004D
:100160001030F700F70BB22800001C0883120D13A3
:1001700083169D0183128C1EBB281A08A10021083A
:10018000483C031DDA28043003178D0000308F002F
:1001900003100E300313A200152021080C1ECE28D8
:1001A00099000D300C1ED22899000A300C1ED6285A
:1001B0009900E8280E3003178D0000308F000310DF
:1001C0000A300313A200152021080C1EE52899000F
:0401D000BB286300E5
:02400E003A3F37
:00000001FF
;PIC16F877A
;CRC=4D62  CREATED="16-jul-24 16:05"
