:1000000000308A002F2800000030F80006389200E7
:10001000FF30831692008312211121088316870076
:10002000831207110C3097008A110A123E28220809
:1000300095000800223084008313000803192E283D
:100040000130F800F701F70B2328F80B2228F130D4
:10005000F700F70B29280000800B202808008401F6
:1000600083131F30830583161F149F141F159F11C0
:1000700007309C00FF308312A10004280130A0004B
:10008000200F43284B282008A20017206430A2002C
:100090001A20A00A4028FF30A0002008023C0318C4
:1000A00059282008A20017206430A2001A20A003BB
:0600B0004D283E2863000C
:02400E003A3F37
:00000001FF
;PIC16F877A
;CRC=6D17  CREATED="15-jul-24 12:07"
