:1000000000308A001B28000022308400831300087F
:10001000031918280130F800F701F70B0D28F80B29
:100020000C28F130F700F70B13280000800B0A288A
:100030008A110A127028840183131F3083058316E6
:100040001F149F141F159F1107309C00FF3083124F
:10005000A00083161F149F141F159F111F138312D6
:100060001F139F1383169F1383121F1483160912E5
:1000700083129412A0122008831687008312201680
:100080002008831687008312A0112008831687009A
:100090000130831294000030831694000108C739A0
:1000A00008388100831290010030F800920000307F
:1000B0008316920007309C00050885000430F70085
:1000C000F70B602863281C0883120D1383169D010B
:1000D0008811831288150230A100FA30A20004288A
:1000E000A10B6D2883168811831288118316682846
:0200F0006300AB
:02400E007A3FF7
:00000001FF
;PIC16F877A
;CRC=56A4  CREATED="06-fev-24 09:58"
