:1000000000308A0088280000FF00030E8301A10051
:100010000A08A0008A010408A2007708A300780853
:10002000A4007908A5007A08A600831383120B1E8A
:100030001B288B182C28220884002308F70024088A
:10004000F8002508F9002608FA0020088A00210E89
:100050008300FF0E7F0E09008A110A122F2827083D
:10006000B700FF30B800F701F8013708031038185F
:10007000F707F70CF80CB818F707F70CF80C381955
:10008000F707F70CF80CB819F707F70CF80C381A43
:10009000F707F70CF80CB81AF707F70CF80C381B31
:1000A000F707F70CF80CB81BF707F70CF80C7808F3
:1000B000A7008B108A110A121B281030B600F70116
:1000C000FA01B30CB20C031C6B283408F7070318B1
:1000D000FA0A3508FA07FA0CF70CF90CF80CB60B0B
:1000E00061288A110A12142933308400831300080E
:1000F000031987280630F800F701F70B7D28F80B65
:100100007C287B30F700F70B8328800B7A280800C7
:10011000840183131F3083050130A700AC018316CF
:100120001F149F141F159F1107309C00013083126C
:10013000A8000230A9000430AA000830AB00FF304C
:10014000AF0083161F109F141F159F151F138312D6
:100150001F139F1383169F1383121F1483160912F4
:1001600083129412AF122F088316870083122F1662
:100170002F08831687008312AF112F08831687007C
:100180000130831294000030831694000108C739AF
:1001900008388100831290010030F800920000308E
:1001A0008316920007309C00050885001030F70088
:1001B000F70BD82800001C0883120D1383169D012D
:1001C00083120B16C0308B042708AC07AC1BEC283D
:1001D0002C08033C031CAC01AC1FF0280330AC001E
:1001E00028302C07840083130008B200831688018E
:1001F0008312320888000030F8001F08C7397804DD
:100200009F001030F700F70B032900001F151F197E
:1002100007291E08AE01AD002E08B3002D08B2005C
:10022000B5010A30B4005D287908B1007808B00043
:100230003108B200B20AB20303192229FF30B30019
:0E02400074201B293008B3007420E4286300EA
:02400E003A3F37
:00000001FF
;PIC16F877A
;CRC=0A22  CREATED="12-mar-24 20:03"
