:1000000000308A001A280000223084008313000880
:10001000031917280630F800F701F70B0D28F80B25
:100020000C287B30F700F70B1328800B0A288A1165
:100030000A127528840183131F30830583161F1449
:100040009F141F159F1107309C00FF308312A000E2
:1000500083161F149F141F159F111F1383121F1344
:100060009F1383169F1383121F1483160912831282
:100070009412A012200883168700831220162008ED
:10008000831687008312A011200883168700013091
:10009000831294000030831694000108C739083891
:1000A0008100831290010030F80092000030831626
:1000B000920007309C00050885001030F700F70B10
:1000C0005F2800001C0883120D1383169D0106157E
:1000D0008312061977288316081340308312880686
:1000E0000830A100FA30A2000428A10B7228831660
:0400F000672863001A
:02400E003A3F37
:00000001FF
;PIC16F877A
;CRC=BD4E  CREATED="21-mar-24 12:20"
