:1000000000308A008B28000022308400831300080F
:10001000031918280130F800F701F70B0D28F80B29
:100020000C28F130F700F70B13280000800B0A288A
:10003000080083168811831288150230A100FA3057
:10004000A2000420A10B1F28831688118312881197
:1000500008008316881183128815831608128312EC
:1000600008160230A100FA30A2000420A10B3328A8
:1000700083168811831288118316081283120812BE
:1000800008008316881183128815831608128312BC
:10009000081683168812831288160230A100FA30DF
:1000A000A2000420A10B4F28831688118312881107
:1000B000831608128312081283168812831288127C
:1000C0008A110A12AF2883168811831288158316A5
:1000D0000812831208168316881283128816831654
:1000E0000813831208170230A100FA30A20004207E
:1000F000A10B7528831688118312881183160812A4
:10010000831208128316881283128812831608132A
:10011000831208130800840183131F30830583169C
:100120001F149F141F159F1107309C000430831269
:10013000A100FA30A2000420A10B99281920023056
:10014000A1009630A2000420A10BA1282920023092
:10015000A1009630A2000420A10BA928412802305A
:10016000A1009630A2000420A10BB12863206430C6
:10017000A200042063206430A200042063206430C5
:10018000A200042063200430A100FA30A200042061
:10019000A10BC52819200230A1009630A20004202E
:1001A000A10BCD2829200230A1009630A200042006
:1001B000A10BD52819200230A1009630A2000420FE
:1001C000A10BDD2829206430A200042029206430FE
:1001D000A200042029206430A2000420831696285F
:0201E0006300BA
:02400E007A3FF7
:00000001FF
;PIC16F877A
;CRC=0DF1  CREATED="06-fev-24 13:43"
