:1000000005308A00882D00000A108A100A11820724
:1000100028340C34013406340C2AE539F432A03982
:100020006537F33772000C22E9393A1000013D3090
:1000300084008313000803192B280130F800F7010E
:10004000F70B2028F80B1F28F130F700F70B2628B4
:100050000000800B1D2808000830F8000000871100
:10006000A01120088316870000008312CA0D071212
:10007000031C40282016200883168700442883127A
:10008000201220088316870000008312A015200884
:10009000831687008312871D4B28F80B2E2800003B
:1000A0008711A011200883168700000083122016F4
:1000B000200883168700000000008312A015200886
:1000C000831687008312871D6328F8010000071A32
:1000D00078148711A0112008831687008312071255
:1000E0002012200883168700831208004808003A6F
:1000F00003197E28013A03199F28C228470EF700EA
:10010000F030F70577082504C900CA002C2000004C
:10011000470EF700F030F705770804382504C900CA
:10012000CA002C2093280000470EF700F030F70596
:100130007708FB392504C900CA002C20C228470EC5
:10014000F700F030F705770801382504C900CA0028
:100150002C200000470EF700F030F7057708013833
:1001600004382504C900CA002C20B6280000470E18
:10017000F700F030F705770801382504C900CA00F8
:100180002C20C228080020162008831687000000B3
:100190008312A0152008831687000000831207121F
:1001A0002012200883168700000083128711A011F7
:1001B00020088316870083122108CA002C20440ED1
:1001C000C6000F30C6054608C7004508C80076209F
:1001D00044080F39C600C7004508C8007620201221
:1001E00020088316870000008312A01520088316BC
:1001F00087008312871DFA280000FE2800002016C1
:100200002008831687000000831208000130C40014
:10021000C501C3200230BD0017200130A400080032
:100220002F08A1003108A2003008A3000B138B1384
:100230008B1B17293230BD0017202016200883168B
:10024000870000008312A015200883168700000095
:1002500083120712201220088316870000008312E1
:100260008711A01120088316870083122108CA0075
:100270002C20C701C80176200F30BD0017200130A7
:10028000B2003208033C031C4E290330C700C801EA
:1002900076200530BD001720B20A41290230C70080
:1002A000C80176200530BD001720201220088316D3
:1002B000870000008312A015200883168700831290
:1002C000871D60290000642900002016200883167D
:1002D000870000008312B2013208033C031C7B2913
:1002E00032080420B300C400C501C3200530BD009E
:1002F0001720B20A6C290621C0308B048A110A1219
:10030000AD2DAF08031987290830A5008829A5015C
:100310008A110A12B02DB530900083160814881087
:100320008810831288108A110A12B12D3908031916
:100330005B2AC5003D0803195B2AC502031CA529D9
:100340007F30C50703185B2AAB298130C502031C27
:100350005B2A03195B2A4508F700F801F901FA0145
:10036000C4013A08C300C3173B08C2003C08C100DF
:100370001930C5004008C1020318CE290130C2025D
:100380000318CE29C3020318CE29C4020318CE29AC
:10039000C40AC30AC20A4008C107002A3F08C202B1
:1003A0000318E9290130C3020318E929C40203181C
:1003B000E929C40AC30A3F08C2074008C107031C51
:1003C000002AC20A031D002AC30A031D002AC40A08
:1003D000002A3E088038C3020318FF290130C402F6
:1003E0000318FF29C40A3E088038C3073F08C20724
:1003F000031CDD29C30A031DDD29C40ADD297A1483
:10040000C50B032A0E2A0310C10DC20DC30DC40D66
:100410000310FA0DF90DF80DC60DBA29461C162A5F
:100420000310F80CF90CFA0CC60C192AF70303197F
:100430005B2AC61B422A0310C10DC20DC30DC40D99
:100440004008C10203182E2A0130C20203182E2AC6
:10045000C30203182E2AC402031C512A3F08C202F9
:100460000318392A0130C3020318392AC402031CB5
:10047000512A3E088038C3020318422A0130C402C0
:10048000031C512AFA0A031D512AF90A031D512A95
:10049000F80A031D512AF70A03195B2AF80CF90C14
:1004A000FA0C3A08C5003E08C506C51F592AF817B8
:1004B0005F2AF8135F2AF701F801F901FA01080031
:1004C0003D080319D02AC50041080319D02AC507E1
:1004D0000318712A7F30C502031CD02A0319D02AC1
:1004E000752A8130C5070318D02A4508F700F8019E
:1004F000F901FA013E08C900C9173F08C8004008C1
:10050000C7001830C500C601471C9E2A4408FA07D8
:10051000031C902AF90A031D902AF80A0319C6172A
:100520004308F907031C972AF80A0319C61742085B
:10053000BF00BF173F08F8070318C617C60DF80C11
:10054000F90CFA0CC90CC80CC70C0310C50B832A94
:100550000130F7070318D02AF81BB52AC90DFA0D88
:10056000F90DF80DF7030319D02AC91FC62AFA0A94
:10057000031DC62AF90A031DC62AF80A031DC62A46
:10058000F80CF90CFA0CF70A0319D02A3E08C60039
:100590004208C606C61FCE2AF817D42AF813D42A52
:1005A000F701F801F901FA010800B001AF01B40147
:1005B000B301B201B101B801B701B601B5012A0812
:1005C000BC002908BB002808BA002708B900B630CB
:1005D000F700FA01F901F80139083A043B043C0438
:1005E000031DF42AF701012B0310F81B002BB90D92
:1005F000BA0DBB0DBC0DFA0DF90DF80DF70BF42A71
:10060000F813BC01BB017A30BA008A30B9007A080D
:10061000C0007908BF007808BE007708BD009621A9
:100620007708B9007808BA007908BB007A08BC00DE
:10063000C0007908BF007808BE007708BD00C4017B
:10064000C301C2018230C10060227A08B800790873
:10065000B7007808B6007708B500831688108312B3
:1006600088140430F700F70B332B362B83168810D1
:1006700083128810081C3A2B8F018E0108183E2B1C
:100680000F08FA000E08F7000F087A02031D402B2E
:100690007708AF007A08B0003008BA002F08B90018
:1006A0008E30F7003A08F8003908F900FA01F80826
:1006B000031D642B7908F800F9010830F702F808E7
:1006C000031D642BF7016C2B0310F81B6B2BF90D2A
:1006D000F80DF703642BF8137A08BC007908BB0007
:1006E0007808BA007708B900C001BF01BE018030A8
:1006F000BD0096217708B9007808BA007908BB00D8
:100700007A08BC00C0007908BF007808BE007708EE
:10071000BD003808C4003708C3003608C2003508D9
:10072000C10060227708B9007808BA007908BB00D8
:100730007A08BC00C0007908BF007808BE007708BE
:10074000BD00C401C3010830C2008430C100602272
:100750007A08B4007908B3007808B2007708B100CD
:100760003108F7003208F8003308F9003408FA00BD
:100770008A110A12B32D3C080C3A0319C62B063A0B
:100780000319C82B023A03190B2C102C0621162C26
:10079000A40A240822020318CF2B0130A400013040
:1007A000BD002408BE003E0822020318DA2B2208EE
:1007B000BF00DC2B3E08BF003F08013A0319EA2BBB
:1007C000033A0319EC2B013A0319EF2B073A0319EB
:1007D000F22BF52BC101F72B4030C100F72B143061
:1007E000C100F72B5430C100F72BC101F72B3D0896
:1007F00023020318FE2B2308C000002C3D08C00074
:10080000013040024107C20042088038C300C400E2
:10081000C501C320162C1030C400C501C320162CFE
:100820003C08C4000130C500C320162C0800831604
:1008300003178C170C140000000083120C087F397A
:1008400003195B2C0313AF0003170D080313B0004B
:1008500003170F080313B1002F08BC00BB23300897
:1008600003178D000313310803178F0083168C17AD
:100870000C140000000083120C0D0E0D7F390319BB
:100880005B2C0313AF0003170D080313B00003170D
:100890000F080313B1002F08BC00BB233008031757
:1008A0008D000313310803178F008D0A03198F0A77
:1008B0000313172C031703130800F701F801F901BC
:1008C000FA01C401C501C601C7014308420441043D
:1008D000400403199B2C2030C8000310BC0DBD0D33
:1008E000BE0DBF0DC40DC50DC60DC70D4308470293
:1008F000031D842C42084602031D842C4108450236
:10090000031D842C40084402031C952C4008C4029B
:100910004108031C410FC5024208031C420FC602D6
:100920004308031C430FC7020314F70DF80DF90D1C
:10093000FA0DC80B6D2C44308400831308000408A2
:10094000B4003308B6000319BE2C3208C0003108C9
:10095000BF003008BE002F08BD00C401C301203015
:10096000C2008230C10060227A08B2007908B1006A
:100970007808B0007708AF00B60BA52C3208BF008E
:100980003108BE003008BD002F08BC003C08B63C52
:10099000BC00FA013D08C000BD170310BD0CBE0C21
:1009A000BF0CFA0CF90CF80CF70CBC0BCD2CC01FCB
:1009B000E42CF709F809F909FA09F70A0319F80A02
:1009C0000319F90A0319FA0A7A08B2007908B10082
:1009D0007808B0007708AF00B21FFB2CB403B41640
:1009E000AF09B009B109B209AF0A0319B00A031976
:1009F000B10A0319B20A3B30BB009A30BA00CA30C0
:100A0000B900B8010A30B60033080319B40A320835
:100A1000BF003108BE003008BD002F08BC003B08F5
:100A2000C3003A08C2003908C1003808C0005D247C
:100A30000008AF00840A0008B000840A0008B10072
:100A4000840A0008B200FD308407F708031D3B2D1F
:100A5000330A360203193B2D340803193D2D0F3993
:100A600036020319352D03186D2DB41B6D2D341B63
:100A70003D2D2030692D2030B405B41E4B2DB4120D
:100A80003308031DB4037708B4002D30BC00BB232A
:100A90003408F700B40133083602031D592D7708D6
:100AA000B4002E30BC00BB233408F7002030B4055E
:100AB00000303030B41E692DB4123308031DB40366
:100AC0007708B4002D30BC00BB233408F700B40114
:100AD0003030F7077708BC00BB233B08BF003A085B
:100AE000BE003908BD003808BC00C301C201C10105
:100AF0000A30C0005D247A08BB007908BA00780883
:100B0000B9007708B800B60B072D8A110A12DD2D3F
:100B1000840183131F3083050130A4000830A50031
:100B2000AA015B30A9008D30A8008030A700AE017B
:100B3000AD01AC01AB0183161F149F141F159F114B
:100B400007309C00FF308312A000A6014E30AF009A
:100B50001030B0000230B10010290130AF008129FF
:100B60008B290621D52A7A08AE007908AD007808CD
:100B7000AC007708AB000C3003178D0000308F00FD
:100B8000031317240430AF00FA30BD001720AF0B59
:100B9000C42D133003178D0000308F00031317246A
:100BA000893084002E08B2002D08B1002C08B00056
:100BB0002B08AF000230B3009F2C0430AF00FA3096
:0C0BC000BD001720AF0BDF2DB12D63002E
:02400E003A3F37
:00000001FF
;PIC16F877A
;CRC=2DFC  CREATED="16-jul-24 16:53"
