:1000000002308A00502A00000A108A100A11820762
:1000100028340C34013406340C10E7306E34613966
:1000200020182E1935000A286F392033613B6F39AB
:100030002C1070396F3300010C2643222021E1314E
:100040006B26E933683A0A10201020104F2346101F
:100050002010201020000C2643222021E1316B26A5
:10006000E933683A0A10201020104F272010201082
:10007000201000002C3084008313000803194E2840
:100080000130F800F701F70B4328F80B4228F13054
:10009000F700F70B49280000800B402808000830C3
:1000A000F80000008711A0112008831687000000C7
:1000B0008312B90D0712031C63282016200883162B
:1000C000870067288312201220088316870000000B
:1000D0008312A0152008831687008312871D6E28BF
:1000E000F80B512800008711A01120088316870003
:1000F00000008312201620088316870000000000ED
:100100008312A0152008831687008312871D862876
:10011000F8010000071A78148711A011200883162F
:10012000870083120712201220088316870083128B
:1001300008003708003A0319A128013A0319C22818
:10014000E528360EF700F030F70577082504B800EB
:10015000B9004F200000360EF700F030F7057708A1
:1001600004382504B800B9004F20B6280000360E28
:10017000F700F030F7057708FB392504B800B9001F
:100180004F20E528360EF700F030F70577080138E4
:100190002504B800B9004F200000360EF700F030FB
:1001A000F7057708013804382504B800B9004F2056
:1001B000D9280000360EF700F030F705770801382F
:1001C0002504B800B9004F20E528080020162008B3
:1001D0008316870000008312A0152008831687006D
:1001E00000008312071220122008831687000000E7
:1001F00083128711A011200883168700831221081B
:10020000B9004F20330EB5000F30B5053508B600E4
:100210003408B700992033080F39B500B600340808
:10022000B70099202012200883168700000083124F
:10023000A0152008831687008312871D1D29000042
:100240002129000020162008831687000000831251
:1002500008000130B300B401E6200230AC003A20BF
:100260000130A40008002808A1002A08A2002908DB
:10027000A3000B138B138B1B3A293230AC003A20AE
:10028000201620088316870000008312A01520087E
:10029000831687000000831207122012200883169D
:1002A0008700000083128711A011200883168700A1
:1002B00083122108B9004F20B601B70199200F30F1
:1002C000AC003A200130AB002B08033C031C712921
:1002D0000330B600B70199200530AC003A20AB0AD4
:1002E00064290230B600B70199200530AC003A20ED
:1002F000201220088316870000008312A015200812
:10030000831687008312871D832900008729000038
:10031000201620088316870000008312AB012B08EB
:10032000033C031C9E292B080420AC00B300B4013D
:10033000E6200530AC003A20AB0A8F292921C030D5
:100340008B048A110A126B2AA8080319AA290830FB
:10035000A500AB29A50108002D0822020318B32926
:100360002208AE00B5292D08AE002E08013A031967
:10037000C329033A0319C529013A0319C829073AC1
:100380000319CB29CE29B001D0294030B000D029A3
:100390001430B000D0295430B000D029B001D02999
:1003A0002C0823020318D7292308AF00D9292C08C9
:1003B000AF0001302F023007B10031088038B200A1
:1003C000B300B401E62008002B080C3A0319EF290A
:1003D000063A0319F129023A0319FE29032A2921B1
:1003E000092AA40A240822020318F8290130A400CB
:1003F0000130AC002408AD00AC21092A1030B30054
:10040000B401E620092A2B08B3000130B400E6202D
:10041000092A0800831603178C170C14000000002B
:1004200083120C087F3903194E2A0313A8000317FF
:100430000D080313A90003170F080313AA002808C7
:10044000AB00E421290803178D0003132A080317C2
:100450008F0083168C170C140000000083120C0D03
:100460000E0D7F3903194E2A0313A80003170D0838
:100470000313A90003170F080313AA002808AB00F1
:10048000E421290803178D0003132A0803178F009E
:100490008D0A03198F0A03130A2A0317031308008E
:1004A000840183131F3083050130A4000830A500A8
:1004B00083161F149F141F159F1107309C00FF30D7
:1004C0008312A000A601A7014E30A8001030A90099
:1004D0000230AA0033290130A800A42129210C30C0
:1004E00003178D0000308F0003130A220430A80088
:1004F000FA30AC003A20A80B782A133003178D008D
:1005000000308F0003130A220430A800FA30AC0038
:100510003A20A80B862A0C30AB00E4210230A80058
:10052000FA30AC003A20A80B902A1430AC0002300C
:10053000AD00AC21A701230827020318AD2A203003
:10054000AB00E4210830AB00E4210830AB00E4212B
:100550006430AC003A20A70A9B2AA801A4211C30D1
:1005600003178D0000308F0003130A220C30A800FF
:10057000FA30AC003A20A80BB82A0130A800A42118
:100580002B3003178D0000308F0003130A220C302C
:10059000A800FA30AC003A20A80BC92A6E2A6300E2
:02400E003A3F37
:00000001FF
;PIC16F877A
;CRC=2D1F  CREATED="10-mar-24 12:07"
